{
  "contractName": "Builtin",
  "abi": [
    {
      "inputs": [],
      "name": "getAuthority",
      "outputs": [
        {
          "internalType": "contract Authority",
          "name": "",
          "type": "Authority"
        }
      ],
      "stateMutability": "pure",
      "type": "function"
    },
    {
      "inputs": [],
      "name": "getEnergy",
      "outputs": [
        {
          "internalType": "contract Energy",
          "name": "",
          "type": "Energy"
        }
      ],
      "stateMutability": "pure",
      "type": "function"
    },
    {
      "inputs": [],
      "name": "getExtension",
      "outputs": [
        {
          "internalType": "contract Extension",
          "name": "",
          "type": "Extension"
        }
      ],
      "stateMutability": "pure",
      "type": "function"
    },
    {
      "inputs": [],
      "name": "getParams",
      "outputs": [
        {
          "internalType": "contract Params",
          "name": "",
          "type": "Params"
        }
      ],
      "stateMutability": "pure",
      "type": "function"
    },
    {
      "inputs": [],
      "name": "getExecutor",
      "outputs": [
        {
          "internalType": "contract Executor",
          "name": "",
          "type": "Executor"
        }
      ],
      "stateMutability": "pure",
      "type": "function"
    }
  ],
  "bytecode": "0x6102a7610026600b82828239805160001a60731461001957fe5b30600052607381538281f3fe73000000000000000000000000000000000000000030146080604052600436106100615760003560e01c80635e615a6b146100665780636c1032af1461009a578063776ce6a1146100ce578063c02e705714610102578063e2b178a014610136575b600080fd5b61006e61016a565b604051808273ffffffffffffffffffffffffffffffffffffffff16815260200191505060405180910390f35b6100a261019d565b604051808273ffffffffffffffffffffffffffffffffffffffff16815260200191505060405180910390f35b6100d66101d2565b604051808273ffffffffffffffffffffffffffffffffffffffff16815260200191505060405180910390f35b61010a610208565b604051808273ffffffffffffffffffffffffffffffffffffffff16815260200191505060405180910390f35b61013e61023b565b604051808273ffffffffffffffffffffffffffffffffffffffff16815260200191505060405180910390f35b60007f506172616d73000000000000000000000000000000000000000000000000000060d01c65ffffffffffff16905090565b60007f4578656375746f7200000000000000000000000000000000000000000000000060c01c67ffffffffffffffff16905090565b60007f457874656e73696f6e000000000000000000000000000000000000000000000060b81c68ffffffffffffffffff16905090565b60007f456e65726779000000000000000000000000000000000000000000000000000060d01c65ffffffffffff16905090565b60007f417574686f72697479000000000000000000000000000000000000000000000060b81c68ffffffffffffffffff1690509056fea2646970667358221220f05c216dfce70e4859958eeb050e7ea828a878561da39303b4a8639db96af46264736f6c63430007060033",
  "immutableReferences": {},
  "source": "// SPDX-License-Identifier: MIT\r\npragma solidity 0.7.6;\r\nimport \"./prototype.sol\";\r\nimport \"./energy.sol\";\r\nimport \"./authority.sol\";\r\nimport \"./extension.sol\";\r\nimport \"./params.sol\";\r\nimport \"./executor.sol\";\r\n\r\n/**\r\n * @title Builtin\r\n * @dev The VeChainThor builtin contracts are encapsulated in library Builtin.\r\n * It's very easy to use it for the developer, just need import it.\r\n */\r\nlibrary Builtin {\r\n    /// @return the instance of the contract \"Authority\".\r\n    function getAuthority() external pure returns (Authority) {\r\n        return Authority(uint72(bytes9(\"Authority\")));\r\n    }\r\n\r\n    /// @return the instance of the contract \"Energy\".\r\n    function getEnergy() external pure returns (Energy) {\r\n        return Energy(uint48(bytes6(\"Energy\")));\r\n    }\r\n\r\n    /// @return the instance of the contract \"Extension\".\r\n    function getExtension() external pure returns (Extension) {\r\n        return Extension(uint72(bytes9(\"Extension\")));\r\n    }\r\n\r\n    /// @return the instance of the contract \"Params\".\r\n    function getParams() external pure returns (Params) {\r\n        return Params(uint48(bytes6(\"Params\")));\r\n    }\r\n\r\n    /// @return the instance of the contract \"Executor\".\r\n    function getExecutor() external pure returns (Executor) {\r\n        return Executor(uint64(bytes8(\"Executor\")));\r\n    }\r\n\r\n    Energy constant energy = Energy(uint48(bytes6(\"Energy\")));\r\n\r\n    /// @return amount of VeThor in account 'self'.\r\n    function $energy(address self) internal view returns (uint256 amount) {\r\n        return energy.balanceOf(self);\r\n    }\r\n\r\n    /// @notice transfer 'amount' of VeThor from msg sender to account 'self'.\r\n    function $transferEnergy(address self, uint256 amount) internal {\r\n        energy.transfer(self, amount);\r\n    }\r\n\r\n    /// @notice transfer 'amount' of VeThor from account 'self' to account 'to'.\r\n    function $moveEnergyTo(\r\n        address self,\r\n        address to,\r\n        uint256 amount\r\n    ) internal {\r\n        energy.move(self, to, amount);\r\n    }\r\n\r\n    Prototype constant prototype = Prototype(uint72(bytes9(\"Prototype\")));\r\n\r\n    /// @return master address of self\r\n    function $master(address self) internal view returns (address) {\r\n        return prototype.master(self);\r\n    }\r\n\r\n    /// @notice 'newMaster' will be set to contract 'self' and this function only works when msg sender is the old master.\r\n    function $setMaster(address self, address newMaster) internal {\r\n        prototype.setMaster(self, newMaster);\r\n    }\r\n\r\n    /// @return the amount of VET at blockNumber\r\n    function $balance(address self, uint256 blockNumber)\r\n        internal\r\n        view\r\n        returns (uint256)\r\n    {\r\n        return prototype.balance(self, blockNumber);\r\n    }\r\n\r\n    /// @return the amount of energy at blockNumber\r\n    function $energy(address self, uint256 blockNumber)\r\n        internal\r\n        view\r\n        returns (uint256)\r\n    {\r\n        return prototype.energy(self, blockNumber);\r\n    }\r\n\r\n    /// @notice 'self' check if address self is a contract account\r\n    function $hasCode(address self) internal view returns (bool) {\r\n        return prototype.hasCode(self);\r\n    }\r\n\r\n    /// @return value indexed by key at self storage\r\n    function $storageFor(address self, bytes32 key)\r\n        internal\r\n        view\r\n        returns (bytes32)\r\n    {\r\n        return prototype.storageFor(self, key);\r\n    }\r\n\r\n    function $creditPlan(address self)\r\n        internal\r\n        view\r\n        returns (uint256 credit, uint256 recoveryRate)\r\n    {\r\n        return prototype.creditPlan(self);\r\n    }\r\n\r\n    /// @notice set creditPlan to contract 'self'\r\n    function $setCreditPlan(\r\n        address self,\r\n        uint256 credit,\r\n        uint256 recoveryRate\r\n    ) internal {\r\n        prototype.setCreditPlan(self, credit, recoveryRate);\r\n    }\r\n\r\n    /// @notice check if address 'user' is the user of contract 'self'.\r\n    function $isUser(address self, address user) internal view returns (bool) {\r\n        return prototype.isUser(self, user);\r\n    }\r\n\r\n    /// @notice return the current credit of 'user' of the contract 'self'.\r\n    function $userCredit(address self, address user)\r\n        internal\r\n        view\r\n        returns (uint256)\r\n    {\r\n        return prototype.userCredit(self, user);\r\n    }\r\n\r\n    /// @notice add address 'user' to the user list of a contract 'self'.\r\n    function $addUser(address self, address user) internal {\r\n        prototype.addUser(self, user);\r\n    }\r\n\r\n    /// @notice remove 'user' from the user list of a contract 'self'.\r\n    function $removeUser(address self, address user) internal {\r\n        prototype.removeUser(self, user);\r\n    }\r\n\r\n    /// @notice check if 'sponsorAddress' is the sponser of contract 'self'.\r\n    function $isSponsor(address self, address sponsor)\r\n        internal\r\n        view\r\n        returns (bool)\r\n    {\r\n        return prototype.isSponsor(self, sponsor);\r\n    }\r\n\r\n    /// @notice select 'sponsorAddress' to be current selected sponsor of contract 'self'\r\n    function $selectSponsor(address self, address sponsor) internal {\r\n        prototype.selectSponsor(self, sponsor);\r\n    }\r\n\r\n    /// @notice return current selected sponsor of contract 'self'\r\n    function $currentSponsor(address self) internal view returns (address) {\r\n        return prototype.currentSponsor(self);\r\n    }\r\n}\r\n",
  "sourcePath": "C:\\Users\\paula_dp5y8vd\\token\\contracts\\builtin.sol",
  "compiler": {
    "name": "solc",
    "version": "0.7.6+commit.7338295f.Emscripten.clang"
  },
  "schemaVersion": "3.4.7",
  "updatedAt": "2022-09-17T15:37:01.956Z",
  "devdoc": {
    "details": "The VeChainThor builtin contracts are encapsulated in library Builtin. It's very easy to use it for the developer, just need import it.",
    "kind": "dev",
    "methods": {
      "getAuthority()": {
        "returns": {
          "_0": "the instance of the contract \"Authority\"."
        }
      },
      "getEnergy()": {
        "returns": {
          "_0": "the instance of the contract \"Energy\"."
        }
      },
      "getExecutor()": {
        "returns": {
          "_0": "the instance of the contract \"Executor\"."
        }
      },
      "getExtension()": {
        "returns": {
          "_0": "the instance of the contract \"Extension\"."
        }
      },
      "getParams()": {
        "returns": {
          "_0": "the instance of the contract \"Params\"."
        }
      }
    },
    "title": "Builtin",
    "version": 1
  },
  "userdoc": {
    "kind": "user",
    "methods": {},
    "version": 1
  }
}